{"abi":[{"type":"constructor","inputs":[{"name":"_operator","type":"address","internalType":"address"}],"stateMutability":"nonpayable"},{"type":"function","name":"REGISTRY","inputs":[],"outputs":[{"name":"","type":"address","internalType":"contract IAddressRegistry"}],"stateMutability":"view"},{"type":"function","name":"claim","inputs":[{"name":"userTag","type":"bytes6","internalType":"bytes6"},{"name":"token","type":"address","internalType":"address"},{"name":"amount","type":"uint256","internalType":"uint256"},{"name":"depositId","type":"bytes32","internalType":"bytes32"}],"outputs":[],"stateMutability":"nonpayable"},{"type":"function","name":"claimed","inputs":[{"name":"","type":"bytes32","internalType":"bytes32"}],"outputs":[{"name":"","type":"bool","internalType":"bool"}],"stateMutability":"view"},{"type":"function","name":"deactivate","inputs":[{"name":"userTag","type":"bytes6","internalType":"bytes6"}],"outputs":[],"stateMutability":"nonpayable"},{"type":"function","name":"getRule","inputs":[{"name":"userTag","type":"bytes6","internalType":"bytes6"}],"outputs":[{"name":"recipients","type":"tuple[]","internalType":"struct SplitForwarder.Recipient[]","components":[{"name":"addr","type":"address","internalType":"address"},{"name":"percentBps","type":"uint16","internalType":"uint16"}]},{"name":"createdAt","type":"uint64","internalType":"uint64"},{"name":"active","type":"bool","internalType":"bool"}],"stateMutability":"view"},{"type":"function","name":"masterId","inputs":[],"outputs":[{"name":"","type":"bytes4","internalType":"bytes4"}],"stateMutability":"view"},{"type":"function","name":"operator","inputs":[],"outputs":[{"name":"","type":"address","internalType":"address"}],"stateMutability":"view"},{"type":"function","name":"processBatch","inputs":[{"name":"userTags","type":"bytes6[]","internalType":"bytes6[]"},{"name":"tokens","type":"address[]","internalType":"address[]"},{"name":"amounts","type":"uint256[]","internalType":"uint256[]"},{"name":"depositIds","type":"bytes32[]","internalType":"bytes32[]"}],"outputs":[],"stateMutability":"nonpayable"},{"type":"function","name":"processDeposit","inputs":[{"name":"userTag","type":"bytes6","internalType":"bytes6"},{"name":"token","type":"address","internalType":"address"},{"name":"amount","type":"uint256","internalType":"uint256"},{"name":"depositId","type":"bytes32","internalType":"bytes32"}],"outputs":[],"stateMutability":"nonpayable"},{"type":"function","name":"processed","inputs":[{"name":"","type":"bytes32","internalType":"bytes32"}],"outputs":[{"name":"","type":"bool","internalType":"bool"}],"stateMutability":"view"},{"type":"function","name":"register","inputs":[{"name":"salt","type":"bytes32","internalType":"bytes32"}],"outputs":[{"name":"","type":"bytes4","internalType":"bytes4"}],"stateMutability":"nonpayable"},{"type":"function","name":"setRule","inputs":[{"name":"userTag","type":"bytes6","internalType":"bytes6"},{"name":"recipients","type":"tuple[]","internalType":"struct SplitForwarder.Recipient[]","components":[{"name":"addr","type":"address","internalType":"address"},{"name":"percentBps","type":"uint16","internalType":"uint16"}]}],"outputs":[],"stateMutability":"nonpayable"},{"type":"function","name":"transferOperator","inputs":[{"name":"newOperator","type":"address","internalType":"address"}],"outputs":[],"stateMutability":"nonpayable"},{"type":"event","name":"OperatorTransferred","inputs":[{"name":"previous","type":"address","indexed":true,"internalType":"address"},{"name":"next","type":"address","indexed":true,"internalType":"address"}],"anonymous":false},{"type":"event","name":"Registered","inputs":[{"name":"masterId","type":"bytes4","indexed":false,"internalType":"bytes4"}],"anonymous":false},{"type":"event","name":"RuleDeactivated","inputs":[{"name":"userTag","type":"bytes6","indexed":true,"internalType":"bytes6"}],"anonymous":false},{"type":"event","name":"RuleSet","inputs":[{"name":"userTag","type":"bytes6","indexed":true,"internalType":"bytes6"},{"name":"recipientCount","type":"uint256","indexed":false,"internalType":"uint256"}],"anonymous":false},{"type":"event","name":"Split","inputs":[{"name":"userTag","type":"bytes6","indexed":true,"internalType":"bytes6"},{"name":"token","type":"address","indexed":true,"internalType":"address"},{"name":"amount","type":"uint256","indexed":false,"internalType":"uint256"},{"name":"recipientCount","type":"uint256","indexed":false,"internalType":"uint256"}],"anonymous":false},{"type":"error","name":"AlreadyClaimed","inputs":[]},{"type":"error","name":"AlreadyProcessed","inputs":[]},{"type":"error","name":"InvalidPercents","inputs":[]},{"type":"error","name":"NoRule","inputs":[]},{"type":"error","name":"NotOperator","inputs":[]},{"type":"error","name":"NotRecipient","inputs":[]},{"type":"error","name":"TransferFailed","inputs":[]}],"bytecode":{"object":"0x608060405234801561000f575f5ffd5b506040516122f03803806122f0833981810160405281019061003191906100d4565b805f5f6101000a81548173ffffffffffffffffffffffffffffffffffffffff021916908373ffffffffffffffffffffffffffffffffffffffff160217905550506100ff565b5f5ffd5b5f73ffffffffffffffffffffffffffffffffffffffff82169050919050565b5f6100a38261007a565b9050919050565b6100b381610099565b81146100bd575f5ffd5b50565b5f815190506100ce816100aa565b92915050565b5f602082840312156100e9576100e8610076565b5b5f6100f6848285016100c0565b91505092915050565b6121e48061010c5f395ff3fe608060405234801561000f575f5ffd5b50600436106100cd575f3560e01c80639cbb56091161008a578063c1f0808a11610064578063c1f0808a146101d3578063cc3c0f0614610203578063e1fa8e8414610233578063f897133314610263576100cd565b80639cbb56091461017f578063a28968161461019b578063b21ebab8146101b7576100cd565b8063012ad2f7146100d157806306433b1b146100ed57806329605e771461010b5780635122bb7c14610127578063570ca735146101455780639710097a14610163575b5f5ffd5b6100eb60048036038101906100e6919061155e565b610295565b005b6100f56103cd565b6040516101029190611603565b60405180910390f35b61012560048036038101906101209190611657565b6103e5565b005b61012f610526565b60405161013c91906116bc565b60405180910390f35b61014d610538565b60405161015a91906116e4565b60405180910390f35b61017d6004803603810190610178919061185d565b61055c565b005b610199600480360381019061019491906119a7565b61060d565b005b6101b560048036038101906101b09190611a60565b610a4b565b005b6101d160048036038101906101cc91906119a7565b610d48565b005b6101ed60048036038101906101e89190611abd565b61117a565b6040516101fa9190611b02565b60405180910390f35b61021d60048036038101906102189190611abd565b611197565b60405161022a9190611b02565b60405180910390f35b61024d60048036038101906102489190611abd565b6111b4565b60405161025a91906116bc565b60405180910390f35b61027d6004803603810190610278919061155e565b61133e565b60405161028c93929190611c3d565b60405180910390f35b5f5f9054906101000a900473ffffffffffffffffffffffffffffffffffffffff1673ffffffffffffffffffffffffffffffffffffffff163373ffffffffffffffffffffffffffffffffffffffff161461031a576040517f7c214f0400000000000000000000000000000000000000000000000000000000815260040160405180910390fd5b5f60015f8379ffffffffffffffffffffffffffffffffffffffffffffffffffff191679ffffffffffffffffffffffffffffffffffffffffffffffffffff191681526020019081526020015f2060010160086101000a81548160ff0219169083151502179055508079ffffffffffffffffffffffffffffffffffffffffffffffffffff19167faa414cdb0286199ab890ac1a0d9de1ed2ac4b3746232bc480afe5e6e114bcf9760405160405180910390a250565b73fdc000000000000000000000000000000000000081565b5f5f9054906101000a900473ffffffffffffffffffffffffffffffffffffffff1673ffffffffffffffffffffffffffffffffffffffff163373ffffffffffffffffffffffffffffffffffffffff161461046a576040517f7c214f0400000000000000000000000000000000000000000000000000000000815260040160405180910390fd5b8073ffffffffffffffffffffffffffffffffffffffff165f5f9054906101000a900473ffffffffffffffffffffffffffffffffffffffff1673ffffffffffffffffffffffffffffffffffffffff167f74da04524d50c64947f5dd5381ef1a4dca5cba8ed1d816243f9e48aa0b5617ed60405160405180910390a3805f5f6101000a81548173ffffffffffffffffffffffffffffffffffffffff021916908373ffffffffffffffffffffffffffffffffffffffff16021790555050565b5f60149054906101000a900460e01b81565b5f5f9054906101000a900473ffffffffffffffffffffffffffffffffffffffff1681565b5f5b88889050811015610602576105f589898381811061057f5761057e611c79565b5b9050602002016020810190610594919061155e565b8888848181106105a7576105a6611c79565b5b90506020020160208101906105bc9190611657565b8787858181106105cf576105ce611c79565b5b905060200201358686868181106105e9576105e8611c79565b5b90506020020135610d48565b808060010191505061055e565b505050505050505050565b5f60015f8679ffffffffffffffffffffffffffffffffffffffffffffffffffff191679ffffffffffffffffffffffffffffffffffffffffffffffffffff191681526020019081526020015f2090508060010160089054906101000a900460ff166106a3576040517f498578c800000000000000000000000000000000000000000000000000000000815260040160405180910390fd5b5f85836040516020016106b7929190611cc4565b60405160208183030381529060405280519060200120905060025f8281526020019081526020015f205f9054906101000a900460ff1615610724576040517f57eee76600000000000000000000000000000000000000000000000000000000815260040160405180910390fd5b5f6001835f01805490506107389190611d18565b90505f5f5b828111610a09573373ffffffffffffffffffffffffffffffffffffffff16855f0182815481106107705761076f611c79565b5b905f5260205f20015f015f9054906101000a900473ffffffffffffffffffffffffffffffffffffffff1673ffffffffffffffffffffffffffffffffffffffff16036109f6575f8987836040516020016107cb93929190611d5a565b60405160208183030381529060405280519060200120905060035f8281526020019081526020015f205f9054906101000a900460ff1615610838576040517f646cf55800000000000000000000000000000000000000000000000000000000815260040160405180910390fd5b600160035f8381526020019081526020015f205f6101000a81548160ff0219169083151502179055505f8483036108ed575f5f5b868110156108d857612710895f01828154811061088c5761088b611c79565b5b905f5260205f20015f0160149054906101000a900461ffff1661ffff168c6108b49190611d8f565b6108be9190611dfd565b826108c99190611e2d565b9150808060010191505061086c565b50808a6108e59190611d18565b91505061093a565b612710875f01848154811061090557610904611c79565b5b905f5260205f20015f0160149054906101000a900461ffff1661ffff168a61092d9190611d8f565b6109379190611dfd565b90505b8973ffffffffffffffffffffffffffffffffffffffff1663a9059cbb33836040518363ffffffff1660e01b8152600401610975929190611e60565b6020604051808303815f875af1158015610991573d5f5f3e3d5ffd5b505050506040513d601f19601f820116820180604052508101906109b59190611eb1565b6109eb576040517f90b8ec1800000000000000000000000000000000000000000000000000000000815260040160405180910390fd5b600193505050610a09565b8080610a0190611edc565b91505061073d565b5080610a41576040517f586d335700000000000000000000000000000000000000000000000000000000815260040160405180910390fd5b5050505050505050565b5f5f9054906101000a900473ffffffffffffffffffffffffffffffffffffffff1673ffffffffffffffffffffffffffffffffffffffff163373ffffffffffffffffffffffffffffffffffffffff1614610ad0576040517f7c214f0400000000000000000000000000000000000000000000000000000000815260040160405180910390fd5b5f5f5b83839050811015610b2757838382818110610af157610af0611c79565b5b9050604002016020016020810190610b099190611f4d565b61ffff1682610b189190611e2d565b91508080600101915050610ad3565b506127108114610b63576040517f2757d13000000000000000000000000000000000000000000000000000000000815260040160405180910390fd5b60015f8579ffffffffffffffffffffffffffffffffffffffffffffffffffff191679ffffffffffffffffffffffffffffffffffffffffffffffffffff191681526020019081526020015f205f5f82015f610bbd9190611490565b600182015f6101000a81549067ffffffffffffffff02191690556001820160086101000a81549060ff021916905550505f60015f8679ffffffffffffffffffffffffffffffffffffffffffffffffffff191679ffffffffffffffffffffffffffffffffffffffffffffffffffff191681526020019081526020015f2090505f5b84849050811015610ca157815f01858583818110610c5e57610c5d611c79565b5b905060400201908060018154018082558091505060019003905f5260205f20015f909190919091508181610c9291906120f2565b50508080600101915050610c3d565b5042816001015f6101000a81548167ffffffffffffffff021916908367ffffffffffffffff16021790555060018160010160086101000a81548160ff0219169083151502179055508479ffffffffffffffffffffffffffffffffffffffffffffffffffff19167f76477ad71904dd602058de9c5fb645b349736d808df8d4755bddad828663490885859050604051610d399190612100565b60405180910390a25050505050565b5f60015f8679ffffffffffffffffffffffffffffffffffffffffffffffffffff191679ffffffffffffffffffffffffffffffffffffffffffffffffffff191681526020019081526020015f2090508060010160089054906101000a900460ff16610dde576040517f498578c800000000000000000000000000000000000000000000000000000000815260040160405180910390fd5b5f8583604051602001610df2929190611cc4565b60405160208183030381529060405280519060200120905060025f8281526020019081526020015f205f9054906101000a900460ff1615610e5f576040517f57eee76600000000000000000000000000000000000000000000000000000000815260040160405180910390fd5b600160025f8381526020019081526020015f205f6101000a81548160ff0219169083151502179055505f6001835f0180549050610e9c9190611d18565b90505f5f5b82811015611001575f612710865f018381548110610ec257610ec1611c79565b5b905f5260205f20015f0160149054906101000a900461ffff1661ffff1689610eea9190611d8f565b610ef49190611dfd565b90508873ffffffffffffffffffffffffffffffffffffffff1663a9059cbb875f018481548110610f2757610f26611c79565b5b905f5260205f20015f015f9054906101000a900473ffffffffffffffffffffffffffffffffffffffff16836040518363ffffffff1660e01b8152600401610f6f929190611e60565b6020604051808303815f875af1158015610f8b573d5f5f3e3d5ffd5b505050506040513d601f19601f82011682018060405250810190610faf9190611eb1565b610fe5576040517f90b8ec1800000000000000000000000000000000000000000000000000000000815260040160405180910390fd5b8083610ff19190611e2d565b9250508080600101915050610ea1565b508673ffffffffffffffffffffffffffffffffffffffff1663a9059cbb855f01848154811061103357611032611c79565b5b905f5260205f20015f015f9054906101000a900473ffffffffffffffffffffffffffffffffffffffff1683896110699190611d18565b6040518363ffffffff1660e01b8152600401611086929190611e60565b6020604051808303815f875af11580156110a2573d5f5f3e3d5ffd5b505050506040513d601f19601f820116820180604052508101906110c69190611eb1565b6110fc576040517f90b8ec1800000000000000000000000000000000000000000000000000000000815260040160405180910390fd5b8673ffffffffffffffffffffffffffffffffffffffff168879ffffffffffffffffffffffffffffffffffffffffffffffffffff19167fc1d72e6661966d4aabcd5b13f06b81eafa0b98c98a2b2243e7275c7293d1250888875f0180549050604051611168929190612119565b60405180910390a35050505050505050565b6002602052805f5260405f205f915054906101000a900460ff1681565b6003602052805f5260405f205f915054906101000a900460ff1681565b5f5f5f9054906101000a900473ffffffffffffffffffffffffffffffffffffffff1673ffffffffffffffffffffffffffffffffffffffff163373ffffffffffffffffffffffffffffffffffffffff161461123a576040517f7c214f0400000000000000000000000000000000000000000000000000000000815260040160405180910390fd5b73fdc000000000000000000000000000000000000073ffffffffffffffffffffffffffffffffffffffff16635c559d20836040518263ffffffff1660e01b81526004016112879190612140565b6020604051808303815f875af11580156112a3573d5f5f3e3d5ffd5b505050506040513d601f19601f820116820180604052508101906112c79190612183565b5f60146101000a81548163ffffffff021916908360e01c02179055507f5a7e410129413016290baa2dc113fe009a91b3250353d240c1873e6510be8cc35f60149054906101000a900460e01b60405161132091906116bc565b60405180910390a15f60149054906101000a900460e01b9050919050565b60605f5f5f60015f8679ffffffffffffffffffffffffffffffffffffffffffffffffffff191679ffffffffffffffffffffffffffffffffffffffffffffffffffff191681526020019081526020015f209050805f01816001015f9054906101000a900467ffffffffffffffff168260010160089054906101000a900460ff1682805480602002602001604051908101604052809291908181526020015f905b8282101561147c578382905f5260205f20016040518060400160405290815f82015f9054906101000a900473ffffffffffffffffffffffffffffffffffffffff1673ffffffffffffffffffffffffffffffffffffffff1673ffffffffffffffffffffffffffffffffffffffff1681526020015f820160149054906101000a900461ffff1661ffff1661ffff1681525050815260200190600101906113dd565b505050509250935093509350509193909250565b5080545f8255905f5260205f20906114a891906114ab565b50565b5f5b808211156114fc578281015f5f82015f6101000a81549073ffffffffffffffffffffffffffffffffffffffff02191690555f820160146101000a81549061ffff021916905550506001016114ad565b505090565b5f5ffd5b5f5ffd5b5f7fffffffffffff000000000000000000000000000000000000000000000000000082169050919050565b61153d81611509565b8114611547575f5ffd5b50565b5f8135905061155881611534565b92915050565b5f6020828403121561157357611572611501565b5b5f6115808482850161154a565b91505092915050565b5f73ffffffffffffffffffffffffffffffffffffffff82169050919050565b5f819050919050565b5f6115cb6115c66115c184611589565b6115a8565b611589565b9050919050565b5f6115dc826115b1565b9050919050565b5f6115ed826115d2565b9050919050565b6115fd816115e3565b82525050565b5f6020820190506116165f8301846115f4565b92915050565b5f61162682611589565b9050919050565b6116368161161c565b8114611640575f5ffd5b50565b5f813590506116518161162d565b92915050565b5f6020828403121561166c5761166b611501565b5b5f61167984828501611643565b91505092915050565b5f7fffffffff0000000000000000000000000000000000000000000000000000000082169050919050565b6116b681611682565b82525050565b5f6020820190506116cf5f8301846116ad565b92915050565b6116de8161161c565b82525050565b5f6020820190506116f75f8301846116d5565b92915050565b5f5ffd5b5f5ffd5b5f5ffd5b5f5f83601f84011261171e5761171d6116fd565b5b8235905067ffffffffffffffff81111561173b5761173a611701565b5b60208301915083602082028301111561175757611756611705565b5b9250929050565b5f5f83601f840112611773576117726116fd565b5b8235905067ffffffffffffffff8111156117905761178f611701565b5b6020830191508360208202830111156117ac576117ab611705565b5b9250929050565b5f5f83601f8401126117c8576117c76116fd565b5b8235905067ffffffffffffffff8111156117e5576117e4611701565b5b60208301915083602082028301111561180157611800611705565b5b9250929050565b5f5f83601f84011261181d5761181c6116fd565b5b8235905067ffffffffffffffff81111561183a57611839611701565b5b60208301915083602082028301111561185657611855611705565b5b9250929050565b5f5f5f5f5f5f5f5f6080898b03121561187957611878611501565b5b5f89013567ffffffffffffffff81111561189657611895611505565b5b6118a28b828c01611709565b9850985050602089013567ffffffffffffffff8111156118c5576118c4611505565b5b6118d18b828c0161175e565b9650965050604089013567ffffffffffffffff8111156118f4576118f3611505565b5b6119008b828c016117b3565b9450945050606089013567ffffffffffffffff81111561192357611922611505565b5b61192f8b828c01611808565b92509250509295985092959890939650565b5f819050919050565b61195381611941565b811461195d575f5ffd5b50565b5f8135905061196e8161194a565b92915050565b5f819050919050565b61198681611974565b8114611990575f5ffd5b50565b5f813590506119a18161197d565b92915050565b5f5f5f5f608085870312156119bf576119be611501565b5b5f6119cc8782880161154a565b94505060206119dd87828801611643565b93505060406119ee87828801611960565b92505060606119ff87828801611993565b91505092959194509250565b5f5f83601f840112611a2057611a1f6116fd565b5b8235905067ffffffffffffffff811115611a3d57611a3c611701565b5b602083019150836040820283011115611a5957611a58611705565b5b9250929050565b5f5f5f60408486031215611a7757611a76611501565b5b5f611a848682870161154a565b935050602084013567ffffffffffffffff811115611aa557611aa4611505565b5b611ab186828701611a0b565b92509250509250925092565b5f60208284031215611ad257611ad1611501565b5b5f611adf84828501611993565b91505092915050565b5f8115159050919050565b611afc81611ae8565b82525050565b5f602082019050611b155f830184611af3565b92915050565b5f81519050919050565b5f82825260208201905092915050565b5f819050602082019050919050565b611b4d8161161c565b82525050565b5f61ffff82169050919050565b611b6981611b53565b82525050565b604082015f820151611b835f850182611b44565b506020820151611b966020850182611b60565b50505050565b5f611ba78383611b6f565b60408301905092915050565b5f602082019050919050565b5f611bc982611b1b565b611bd38185611b25565b9350611bde83611b35565b805f5b83811015611c0e578151611bf58882611b9c565b9750611c0083611bb3565b925050600181019050611be1565b5085935050505092915050565b5f67ffffffffffffffff82169050919050565b611c3781611c1b565b82525050565b5f6060820190508181035f830152611c558186611bbf565b9050611c646020830185611c2e565b611c716040830184611af3565b949350505050565b7f4e487b71000000000000000000000000000000000000000000000000000000005f52603260045260245ffd5b611caf81611509565b82525050565b611cbe81611974565b82525050565b5f604082019050611cd75f830185611ca6565b611ce46020830184611cb5565b9392505050565b7f4e487b71000000000000000000000000000000000000000000000000000000005f52601160045260245ffd5b5f611d2282611941565b9150611d2d83611941565b9250828203905081811115611d4557611d44611ceb565b5b92915050565b611d5481611941565b82525050565b5f606082019050611d6d5f830186611ca6565b611d7a6020830185611cb5565b611d876040830184611d4b565b949350505050565b5f611d9982611941565b9150611da483611941565b9250828202611db281611941565b91508282048414831517611dc957611dc8611ceb565b5b5092915050565b7f4e487b71000000000000000000000000000000000000000000000000000000005f52601260045260245ffd5b5f611e0782611941565b9150611e1283611941565b925082611e2257611e21611dd0565b5b828204905092915050565b5f611e3782611941565b9150611e4283611941565b9250828201905080821115611e5a57611e59611ceb565b5b92915050565b5f604082019050611e735f8301856116d5565b611e806020830184611d4b565b9392505050565b611e9081611ae8565b8114611e9a575f5ffd5b50565b5f81519050611eab81611e87565b92915050565b5f60208284031215611ec657611ec5611501565b5b5f611ed384828501611e9d565b91505092915050565b5f611ee682611941565b91507fffffffffffffffffffffffffffffffffffffffffffffffffffffffffffffffff8203611f1857611f17611ceb565b5b600182019050919050565b611f2c81611b53565b8114611f36575f5ffd5b50565b5f81359050611f4781611f23565b92915050565b5f60208284031215611f6257611f61611501565b5b5f611f6f84828501611f39565b91505092915050565b5f8135611f848161162d565b80915050919050565b5f815f1b9050919050565b5f73ffffffffffffffffffffffffffffffffffffffff611fb784611f8d565b9350801983169250808416831791505092915050565b5f611fd7826115d2565b9050919050565b5f819050919050565b611ff082611fcd565b612003611ffc82611fde565b8354611f98565b8255505050565b5f813561201681611f23565b80915050919050565b5f8160a01b9050919050565b5f75ffff000000000000000000000000000000000000000061204c8461201f565b9350801983169250808416831791505092915050565b5f61207c61207761207284611b53565b6115a8565b611b53565b9050919050565b5f819050919050565b61209582612062565b6120a86120a182612083565b835461202b565b8255505050565b5f81015f8301806120bf81611f78565b90506120cb8184611fe7565b5050505f810160208301806120df8161200a565b90506120eb818461208c565b5050505050565b6120fc82826120af565b5050565b5f6020820190506121135f830184611d4b565b92915050565b5f60408201905061212c5f830185611d4b565b6121396020830184611d4b565b9392505050565b5f6020820190506121535f830184611cb5565b92915050565b61216281611682565b811461216c575f5ffd5b50565b5f8151905061217d81612159565b92915050565b5f6020828403121561219857612197611501565b5b5f6121a58482850161216f565b9150509291505056fea2646970667358221220a036c58aa129ea8d5aab6f5ccfd128c573c32cb6d6aa60060231588c88b501bd64736f6c63430008210033","linkReferences":{}},"methodIdentifiers":{"REGISTRY()":"06433b1b","claim(bytes6,address,uint256,bytes32)":"9cbb5609","claimed(bytes32)":"cc3c0f06","deactivate(bytes6)":"012ad2f7","getRule(bytes6)":"f8971333","masterId()":"5122bb7c","operator()":"570ca735","processBatch(bytes6[],address[],uint256[],bytes32[])":"9710097a","processDeposit(bytes6,address,uint256,bytes32)":"b21ebab8","processed(bytes32)":"c1f0808a","register(bytes32)":"e1fa8e84","setRule(bytes6,(address,uint16)[])":"a2896816","transferOperator(address)":"29605e77"},"id":16}